{
  "contractName": "IDSLogs",
  "abi": [
    {
      "inputs": [],
      "stateMutability": "nonpayable",
      "type": "constructor"
    },
    {
      "anonymous": false,
      "inputs": [
        {
          "indexed": true,
          "internalType": "uint256",
          "name": "index",
          "type": "uint256"
        },
        {
          "indexed": false,
          "internalType": "string",
          "name": "alertId",
          "type": "string"
        },
        {
          "indexed": false,
          "internalType": "bool",
          "name": "isSuspicious",
          "type": "bool"
        },
        {
          "indexed": false,
          "internalType": "uint16",
          "name": "confidencePct",
          "type": "uint16"
        },
        {
          "indexed": false,
          "internalType": "string",
          "name": "modelVersion",
          "type": "string"
        },
        {
          "indexed": false,
          "internalType": "uint256",
          "name": "timestamp",
          "type": "uint256"
        }
      ],
      "name": "AlertAdded",
      "type": "event"
    },
    {
      "inputs": [
        {
          "internalType": "uint256",
          "name": "",
          "type": "uint256"
        }
      ],
      "name": "alerts",
      "outputs": [
        {
          "internalType": "string",
          "name": "alertId",
          "type": "string"
        },
        {
          "internalType": "string",
          "name": "sourceType",
          "type": "string"
        },
        {
          "internalType": "bytes32",
          "name": "logHash",
          "type": "bytes32"
        },
        {
          "internalType": "uint256",
          "name": "timestamp",
          "type": "uint256"
        },
        {
          "internalType": "address",
          "name": "reporter",
          "type": "address"
        },
        {
          "internalType": "bool",
          "name": "isSuspicious",
          "type": "bool"
        },
        {
          "internalType": "uint16",
          "name": "confidencePct",
          "type": "uint16"
        },
        {
          "internalType": "string",
          "name": "modelVersion",
          "type": "string"
        }
      ],
      "stateMutability": "view",
      "type": "function",
      "constant": true
    },
    {
      "inputs": [],
      "name": "owner",
      "outputs": [
        {
          "internalType": "address",
          "name": "",
          "type": "address"
        }
      ],
      "stateMutability": "view",
      "type": "function",
      "constant": true
    },
    {
      "inputs": [
        {
          "internalType": "address",
          "name": "",
          "type": "address"
        }
      ],
      "name": "trustedReporters",
      "outputs": [
        {
          "internalType": "bool",
          "name": "",
          "type": "bool"
        }
      ],
      "stateMutability": "view",
      "type": "function",
      "constant": true
    },
    {
      "inputs": [
        {
          "internalType": "bytes32",
          "name": "",
          "type": "bytes32"
        }
      ],
      "name": "usedLogHashes",
      "outputs": [
        {
          "internalType": "bool",
          "name": "",
          "type": "bool"
        }
      ],
      "stateMutability": "view",
      "type": "function",
      "constant": true
    },
    {
      "inputs": [
        {
          "internalType": "address",
          "name": "reporter",
          "type": "address"
        }
      ],
      "name": "addTrustedReporter",
      "outputs": [],
      "stateMutability": "nonpayable",
      "type": "function"
    },
    {
      "inputs": [
        {
          "internalType": "address",
          "name": "reporter",
          "type": "address"
        }
      ],
      "name": "removeTrustedReporter",
      "outputs": [],
      "stateMutability": "nonpayable",
      "type": "function"
    },
    {
      "inputs": [
        {
          "internalType": "string",
          "name": "alertId",
          "type": "string"
        },
        {
          "internalType": "string",
          "name": "sourceType",
          "type": "string"
        },
        {
          "internalType": "bytes32",
          "name": "logHash",
          "type": "bytes32"
        },
        {
          "internalType": "bool",
          "name": "isSuspicious",
          "type": "bool"
        },
        {
          "internalType": "uint16",
          "name": "confidencePct",
          "type": "uint16"
        },
        {
          "internalType": "string",
          "name": "modelVersion",
          "type": "string"
        }
      ],
      "name": "addAlert",
      "outputs": [],
      "stateMutability": "nonpayable",
      "type": "function"
    },
    {
      "inputs": [
        {
          "internalType": "uint256",
          "name": "index",
          "type": "uint256"
        }
      ],
      "name": "getAlert",
      "outputs": [
        {
          "internalType": "string",
          "name": "",
          "type": "string"
        },
        {
          "internalType": "string",
          "name": "",
          "type": "string"
        },
        {
          "internalType": "bytes32",
          "name": "",
          "type": "bytes32"
        },
        {
          "internalType": "uint256",
          "name": "",
          "type": "uint256"
        },
        {
          "internalType": "address",
          "name": "",
          "type": "address"
        },
        {
          "internalType": "bool",
          "name": "",
          "type": "bool"
        },
        {
          "internalType": "uint16",
          "name": "",
          "type": "uint16"
        },
        {
          "internalType": "string",
          "name": "",
          "type": "string"
        }
      ],
      "stateMutability": "view",
      "type": "function",
      "constant": true
    },
    {
      "inputs": [],
      "name": "getAlertsCount",
      "outputs": [
        {
          "internalType": "uint256",
          "name": "",
          "type": "uint256"
        }
      ],
      "stateMutability": "view",
      "type": "function",
      "constant": true
    },
    {
      "inputs": [
        {
          "internalType": "bytes32",
          "name": "logHash",
          "type": "bytes32"
        }
      ],
      "name": "verifyLog",
      "outputs": [
        {
          "internalType": "bool",
          "name": "",
          "type": "bool"
        }
      ],
      "stateMutability": "view",
      "type": "function",
      "constant": true
    }
  ],
  "bytecode": "0x608060405234801561001057600080fd5b50336000806101000a81548173ffffffffffffffffffffffffffffffffffffffff021916908373ffffffffffffffffffffffffffffffffffffffff1602179055506001600260003373ffffffffffffffffffffffffffffffffffffffff1673ffffffffffffffffffffffffffffffffffffffff16815260200190815260200160002060006101000a81548160ff02191690831515021790555061192f806100b86000396000f3fe608060405234801561001057600080fd5b506004361061009e5760003560e01c80638da5cb5b116100665780638da5cb5b1461018d57806390113675146101ab578063a1fcc73f146101db578063b16925ae146101f7578063c7701efc146102135761009e565b8063171d073a146100a35780632a2e2671146100da578063484a5b6f1461010a578063788f4fdb146101265780638508188614610156575b600080fd5b6100bd60048036038101906100b89190610daa565b610231565b6040516100d1989796959493929190610f08565b60405180910390f35b6100f460048036038101906100ef9190610fc7565b61045c565b6040516101019190610ff4565b60405180910390f35b610124600480360381019061011f919061119c565b61047c565b005b610140600480360381019061013b9190610fc7565b6107ee565b60405161014d9190610ff4565b60405180910390f35b610170600480360381019061016b9190610daa565b610818565b604051610184989796959493929190610f08565b60405180910390f35b610195610b3d565b6040516101a2919061127d565b60405180910390f35b6101c560048036038101906101c091906112c4565b610b61565b6040516101d29190610ff4565b60405180910390f35b6101f560048036038101906101f091906112c4565b610b81565b005b610211600480360381019061020c91906112c4565b610c6a565b005b61021b610d53565b60405161022891906112f1565b60405180910390f35b6001818154811061024157600080fd5b90600052602060002090600602016000915090508060000180546102649061133b565b80601f01602080910402602001604051908101604052809291908181526020018280546102909061133b565b80156102dd5780601f106102b2576101008083540402835291602001916102dd565b820191906000526020600020905b8154815290600101906020018083116102c057829003601f168201915b5050505050908060010180546102f29061133b565b80601f016020809104026020016040519081016040528092919081815260200182805461031e9061133b565b801561036b5780601f106103405761010080835404028352916020019161036b565b820191906000526020600020905b81548152906001019060200180831161034e57829003601f168201915b5050505050908060020154908060030154908060040160009054906101000a900473ffffffffffffffffffffffffffffffffffffffff16908060040160149054906101000a900460ff16908060040160159054906101000a900461ffff16908060050180546103d99061133b565b80601f01602080910402602001604051908101604052809291908181526020018280546104059061133b565b80156104525780601f1061042757610100808354040283529160200191610452565b820191906000526020600020905b81548152906001019060200180831161043557829003601f168201915b5050505050905088565b60036020528060005260406000206000915054906101000a900460ff1681565b600260003373ffffffffffffffffffffffffffffffffffffffff1673ffffffffffffffffffffffffffffffffffffffff16815260200190815260200160002060009054906101000a900460ff168061051f575060008054906101000a900473ffffffffffffffffffffffffffffffffffffffff1673ffffffffffffffffffffffffffffffffffffffff163373ffffffffffffffffffffffffffffffffffffffff16145b61055e576040517f08c379a0000000000000000000000000000000000000000000000000000000008152600401610555906113b8565b60405180910390fd5b6003600085815260200190815260200160002060009054906101000a900460ff16156105bf576040517f08c379a00000000000000000000000000000000000000000000000000000000081526004016105b690611424565b60405180910390fd5b60648261ffff161115610607576040517f08c379a00000000000000000000000000000000000000000000000000000000081526004016105fe90611490565b60405180910390fd5b60016003600086815260200190815260200160002060006101000a81548160ff02191690831515021790555060016040518061010001604052808881526020018781526020018681526020014281526020013373ffffffffffffffffffffffffffffffffffffffff16815260200185151581526020018461ffff16815260200183815250908060018154018082558091505060019003906000526020600020906006020160009091909190915060008201518160000190816106c9919061165c565b5060208201518160010190816106df919061165c565b50604082015181600201556060820151816003015560808201518160040160006101000a81548173ffffffffffffffffffffffffffffffffffffffff021916908373ffffffffffffffffffffffffffffffffffffffff16021790555060a08201518160040160146101000a81548160ff02191690831515021790555060c08201518160040160156101000a81548161ffff021916908361ffff16021790555060e0820151816005019081610793919061165c565b505050600180805490506107a7919061175d565b7fb79a14fe2ee28f2f44c268637428566f050a6985f80507a84af30fae9ad7d63487858585426040516107de959493929190611791565b60405180910390a2505050505050565b60006003600083815260200190815260200160002060009054906101000a900460ff169050919050565b60608060008060008060006060600180549050891061086c576040517f08c379a00000000000000000000000000000000000000000000000000000000081526004016108639061183e565b60405180910390fd5b600060018a815481106108825761088161185e565b5b9060005260206000209060060201604051806101000160405290816000820180546108ac9061133b565b80601f01602080910402602001604051908101604052809291908181526020018280546108d89061133b565b80156109255780601f106108fa57610100808354040283529160200191610925565b820191906000526020600020905b81548152906001019060200180831161090857829003601f168201915b5050505050815260200160018201805461093e9061133b565b80601f016020809104026020016040519081016040528092919081815260200182805461096a9061133b565b80156109b75780601f1061098c576101008083540402835291602001916109b7565b820191906000526020600020905b81548152906001019060200180831161099a57829003601f168201915b5050505050815260200160028201548152602001600382015481526020016004820160009054906101000a900473ffffffffffffffffffffffffffffffffffffffff1673ffffffffffffffffffffffffffffffffffffffff1673ffffffffffffffffffffffffffffffffffffffff1681526020016004820160149054906101000a900460ff161515151581526020016004820160159054906101000a900461ffff1661ffff1661ffff168152602001600582018054610a759061133b565b80601f0160208091040260200160405190810160405280929190818152602001828054610aa19061133b565b8015610aee5780601f10610ac357610100808354040283529160200191610aee565b820191906000526020600020905b815481529060010190602001808311610ad157829003601f168201915b5050505050815250509050806000015181602001518260400151836060015184608001518560a001518660c001518760e001519850985098509850985098509850985050919395975091939597565b60008054906101000a900473ffffffffffffffffffffffffffffffffffffffff1681565b60026020528060005260406000206000915054906101000a900460ff1681565b60008054906101000a900473ffffffffffffffffffffffffffffffffffffffff1673ffffffffffffffffffffffffffffffffffffffff163373ffffffffffffffffffffffffffffffffffffffff1614610c0f576040517f08c379a0000000000000000000000000000000000000000000000000000000008152600401610c06906118d9565b60405180910390fd5b6001600260008373ffffffffffffffffffffffffffffffffffffffff1673ffffffffffffffffffffffffffffffffffffffff16815260200190815260200160002060006101000a81548160ff02191690831515021790555050565b60008054906101000a900473ffffffffffffffffffffffffffffffffffffffff1673ffffffffffffffffffffffffffffffffffffffff163373ffffffffffffffffffffffffffffffffffffffff1614610cf8576040517f08c379a0000000000000000000000000000000000000000000000000000000008152600401610cef906118d9565b60405180910390fd5b6000600260008373ffffffffffffffffffffffffffffffffffffffff1673ffffffffffffffffffffffffffffffffffffffff16815260200190815260200160002060006101000a81548160ff02191690831515021790555050565b6000600180549050905090565b6000604051905090565b600080fd5b600080fd5b6000819050919050565b610d8781610d74565b8114610d9257600080fd5b50565b600081359050610da481610d7e565b92915050565b600060208284031215610dc057610dbf610d6a565b5b6000610dce84828501610d95565b91505092915050565b600081519050919050565b600082825260208201905092915050565b60005b83811015610e11578082015181840152602081019050610df6565b60008484015250505050565b6000601f19601f8301169050919050565b6000610e3982610dd7565b610e438185610de2565b9350610e53818560208601610df3565b610e5c81610e1d565b840191505092915050565b6000819050919050565b610e7a81610e67565b82525050565b610e8981610d74565b82525050565b600073ffffffffffffffffffffffffffffffffffffffff82169050919050565b6000610eba82610e8f565b9050919050565b610eca81610eaf565b82525050565b60008115159050919050565b610ee581610ed0565b82525050565b600061ffff82169050919050565b610f0281610eeb565b82525050565b6000610100820190508181036000830152610f23818b610e2e565b90508181036020830152610f37818a610e2e565b9050610f466040830189610e71565b610f536060830188610e80565b610f606080830187610ec1565b610f6d60a0830186610edc565b610f7a60c0830185610ef9565b81810360e0830152610f8c8184610e2e565b90509998505050505050505050565b610fa481610e67565b8114610faf57600080fd5b50565b600081359050610fc181610f9b565b92915050565b600060208284031215610fdd57610fdc610d6a565b5b6000610feb84828501610fb2565b91505092915050565b60006020820190506110096000830184610edc565b92915050565b600080fd5b600080fd5b7f4e487b7100000000000000000000000000000000000000000000000000000000600052604160045260246000fd5b61105182610e1d565b810181811067ffffffffffffffff821117156110705761106f611019565b5b80604052505050565b6000611083610d60565b905061108f8282611048565b919050565b600067ffffffffffffffff8211156110af576110ae611019565b5b6110b882610e1d565b9050602081019050919050565b82818337600083830152505050565b60006110e76110e284611094565b611079565b90508281526020810184848401111561110357611102611014565b5b61110e8482856110c5565b509392505050565b600082601f83011261112b5761112a61100f565b5b813561113b8482602086016110d4565b91505092915050565b61114d81610ed0565b811461115857600080fd5b50565b60008135905061116a81611144565b92915050565b61117981610eeb565b811461118457600080fd5b50565b60008135905061119681611170565b92915050565b60008060008060008060c087890312156111b9576111b8610d6a565b5b600087013567ffffffffffffffff8111156111d7576111d6610d6f565b5b6111e389828a01611116565b965050602087013567ffffffffffffffff81111561120457611203610d6f565b5b61121089828a01611116565b955050604061122189828a01610fb2565b945050606061123289828a0161115b565b935050608061124389828a01611187565b92505060a087013567ffffffffffffffff81111561126457611263610d6f565b5b61127089828a01611116565b9150509295509295509295565b60006020820190506112926000830184610ec1565b92915050565b6112a181610eaf565b81146112ac57600080fd5b50565b6000813590506112be81611298565b92915050565b6000602082840312156112da576112d9610d6a565b5b60006112e8848285016112af565b91505092915050565b60006020820190506113066000830184610e80565b92915050565b7f4e487b7100000000000000000000000000000000000000000000000000000000600052602260045260246000fd5b6000600282049050600182168061135357607f821691505b6020821081036113665761136561130c565b5b50919050565b7f4e6f7420617574686f72697a6564000000000000000000000000000000000000600082015250565b60006113a2600e83610de2565b91506113ad8261136c565b602082019050919050565b600060208201905081810360008301526113d181611395565b9050919050565b7f4475706c6963617465206c6f6700000000000000000000000000000000000000600082015250565b600061140e600d83610de2565b9150611419826113d8565b602082019050919050565b6000602082019050818103600083015261143d81611401565b9050919050565b7f496e76616c696420636f6e666964656e63650000000000000000000000000000600082015250565b600061147a601283610de2565b915061148582611444565b602082019050919050565b600060208201905081810360008301526114a98161146d565b9050919050565b60008190508160005260206000209050919050565b60006020601f8301049050919050565b600082821b905092915050565b6000600883026115127fffffffffffffffffffffffffffffffffffffffffffffffffffffffffffffffff826114d5565b61151c86836114d5565b95508019841693508086168417925050509392505050565b6000819050919050565b600061155961155461154f84610d74565b611534565b610d74565b9050919050565b6000819050919050565b6115738361153e565b61158761157f82611560565b8484546114e2565b825550505050565b600090565b61159c61158f565b6115a781848461156a565b505050565b5b818110156115cb576115c0600082611594565b6001810190506115ad565b5050565b601f821115611610576115e1816114b0565b6115ea846114c5565b810160208510156115f9578190505b61160d611605856114c5565b8301826115ac565b50505b505050565b600082821c905092915050565b600061163360001984600802611615565b1980831691505092915050565b600061164c8383611622565b9150826002028217905092915050565b61166582610dd7565b67ffffffffffffffff81111561167e5761167d611019565b5b611688825461133b565b6116938282856115cf565b600060209050601f8311600181146116c657600084156116b4578287015190505b6116be8582611640565b865550611726565b601f1984166116d4866114b0565b60005b828110156116fc578489015182556001820191506020850194506020810190506116d7565b868310156117195784890151611715601f891682611622565b8355505b6001600288020188555050505b505050505050565b7f4e487b7100000000000000000000000000000000000000000000000000000000600052601160045260246000fd5b600061176882610d74565b915061177383610d74565b925082820390508181111561178b5761178a61172e565b5b92915050565b600060a08201905081810360008301526117ab8188610e2e565b90506117ba6020830187610edc565b6117c76040830186610ef9565b81810360608301526117d98185610e2e565b90506117e86080830184610e80565b9695505050505050565b7f4f7574206f6620626f756e647300000000000000000000000000000000000000600082015250565b6000611828600d83610de2565b9150611833826117f2565b602082019050919050565b600060208201905081810360008301526118578161181b565b9050919050565b7f4e487b7100000000000000000000000000000000000000000000000000000000600052603260045260246000fd5b7f4f6e6c79206f776e657200000000000000000000000000000000000000000000600082015250565b60006118c3600a83610de2565b91506118ce8261188d565b602082019050919050565b600060208201905081810360008301526118f2816118b6565b905091905056fea264697066735822122011e3891d153abb83ee62b2b61148a5f07d5430f1272aca7748ee4a2d2040ca7b64736f6c63430008130033",
  "immutableReferences": {},
  "source": "// SPDX-License-Identifier: MIT\r\npragma solidity ^0.8.19;\r\n\r\ncontract IDSLogs {\r\n\r\n    struct Alert {\r\n        string alertId;\r\n        string sourceType;\r\n        bytes32 logHash;\r\n        uint256 timestamp;\r\n        address reporter;\r\n        bool isSuspicious;        \r\n        uint16 confidencePct;     \r\n        string modelVersion;      \r\n    }\r\n\r\n    address public owner;\r\n    Alert[] public alerts;\r\n\r\n    mapping(address => bool) public trustedReporters;\r\n    mapping(bytes32 => bool) public usedLogHashes;\r\n\r\n    event AlertAdded(\r\n        uint256 indexed index,\r\n        string alertId,\r\n        bool isSuspicious,\r\n        uint16 confidencePct,\r\n        string modelVersion,\r\n        uint256 timestamp\r\n    );\r\n\r\n    modifier onlyOwner() {\r\n        require(msg.sender == owner, \"Only owner\");\r\n        _;\r\n    }\r\n\r\n    modifier onlyTrustedReporter() {\r\n        require(trustedReporters[msg.sender] || msg.sender == owner, \"Not authorized\");\r\n        _;\r\n    }\r\n\r\n    constructor() {\r\n        owner = msg.sender;\r\n        trustedReporters[msg.sender] = true;\r\n    }\r\n\r\n    function addTrustedReporter(address reporter) external onlyOwner {\r\n        trustedReporters[reporter] = true;\r\n    }\r\n\r\n    function removeTrustedReporter(address reporter) external onlyOwner {\r\n        trustedReporters[reporter] = false;\r\n    }\r\n\r\n    function addAlert(\r\n        string memory alertId,\r\n        string memory sourceType,\r\n        bytes32 logHash,\r\n        bool isSuspicious,\r\n        uint16 confidencePct,\r\n        string memory modelVersion\r\n    ) external onlyTrustedReporter {\r\n\r\n        require(!usedLogHashes[logHash], \"Duplicate log\");\r\n        require(confidencePct <= 100, \"Invalid confidence\");\r\n\r\n        usedLogHashes[logHash] = true;\r\n\r\n        alerts.push(Alert({\r\n            alertId: alertId,\r\n            sourceType: sourceType,\r\n            logHash: logHash,\r\n            timestamp: block.timestamp,\r\n            reporter: msg.sender,\r\n            isSuspicious: isSuspicious,\r\n            confidencePct: confidencePct,\r\n            modelVersion: modelVersion\r\n        }));\r\n\r\n        emit AlertAdded(\r\n            alerts.length - 1, \r\n            alertId, \r\n            isSuspicious, \r\n            confidencePct, \r\n            modelVersion,\r\n            block.timestamp\r\n        );\r\n    }\r\n\r\n    function getAlert(uint256 index) external view returns (\r\n            string memory,\r\n            string memory,\r\n            bytes32,\r\n            uint256,\r\n            address,\r\n            bool,\r\n            uint16,\r\n            string memory\r\n    ) {\r\n        require(index < alerts.length, \"Out of bounds\");\r\n        Alert memory a = alerts[index];\r\n        return (\r\n            a.alertId,\r\n            a.sourceType,\r\n            a.logHash,\r\n            a.timestamp,\r\n            a.reporter,\r\n            a.isSuspicious,\r\n            a.confidencePct,\r\n            a.modelVersion\r\n        );\r\n    }\r\n\r\n    function getAlertsCount() public view returns (uint256){\r\n        return alerts.length;\r\n    }\r\n\r\n    function verifyLog(bytes32 logHash) external view returns (bool){\r\n        return usedLogHashes[logHash];\r\n    }\r\n}\r\n",
  "sourcePath": "E:\\Major-Project\\contracts\\IDSLogs.sol",
  "compiler": {
    "name": "solc",
    "version": "0.8.19+commit.7dd6d404.Emscripten.clang"
  },
  "schemaVersion": "3.4.16",
  "updatedAt": "2026-04-23T17:54:55.967Z",
  "networkType": "ethereum",
  "devdoc": {
    "kind": "dev",
    "methods": {},
    "version": 1
  },
  "userdoc": {
    "kind": "user",
    "methods": {},
    "version": 1
  }
}